:040000003CEF00F0E1
:100008001982FACF15F0FBCF16F0A0A60EEF00F07C
:1000180010EF00F026EF00F0A1A615EF00F017EFA3
:1000280000F026EF00F002D824EF00F00500FA6E89
:100038000B50FD6E0C50FE6EF850FF6EFA50120019
:1000480036EF00F09DA62BEF00F02DEF00F036EF15
:1000580000F09EA632EF00F034EF00F036EF00F02B
:1000680017EF00F016C0FBFF15C0FAFF1992110038
:040078003CEF09F060
:101000000000C5EC09F067EC09F00009D8B40BEF5B
:1010100008F00DEF08F01FEF08F05DEC09F0000993
:10102000D8B415EF08F017EF08F01BEF08F0010E29
:101030000D6E5FEF08F0020E0D6E5FEF08F05DECD5
:1010400009F00009D8B427EF08F029EF08F02DEFD8
:1010500008F0030E0D6E5FEF08F0040E0D6E5FEFEB
:1010600008F0F4EC08F049EC09F00009D8B43BEFC3
:1010700008F03DEF08F07CEF08F0C6EC08F07CEFDC
:1010800008F0F4EC08F07CEF08F049EC09F00009F6
:10109000D8B44DEF08F04FEF08F07CEF08F03DEFCB
:1010A00008F053EC09F00009D8B459EF08F05BEFF1
:1010B00008F07CEF08F0DDEC08F07CEF08F00D5054
:1010C000136E146A1450000AD8B469EF08F07CEF6C
:1010D00008F01350010AD8B431EF08F0030AD8B46D
:1010E00041EF08F0010AD8B445EF08F0070AD8B478
:1010F00051EF08F07CEF08F0C3EC09F012002DEC82
:1011000009F0700EADEC09F07F0EA9EC09F0020EAB
:10111000176E100E186E96EC09F0000E176E000E8A
:10112000186E9BEC09F0620E176E130E186E87ECAA
:1011300009F0720E176E130E186E91EC09F07A0E0C
:10114000176E130E186EA0EC09F0000E176E000E4D
:10115000186E8CEC09F0C1EC09F01200000E8D6ED7
:10116000000E8C6E000E896E000E8A6E000E8B6E65
:10117000070E966E92689368FC0E946E95687E6872
:101180001F0E7F6E000E7C6EF18E1200075008104D
:10119000D8B4CDEF08F0CFEF08F0DCEF08F002D8BC
:1011A000DCEF08F00500FA6E0750FD6E0850FE6E89
:1011B000F850FF6EFA501200120009500A10D8B40D
:1011C000E4EF08F0E6EF08F0F3EF08F002D8F3EFF1
:1011D00008F00500FA6E0950FD6E0A50FE6EF850D8
:1011E000FF6EFA501200120005500610D8B4FBEF43
:1011F00008F0FDEF08F00AEF09F002D80AEF09F055
:101200000500FA6E0550FD6E0650FE6EF850FF6E3A
:10121000FA501200120071EC09F0F28EF28CF28C8E
:101220007FEC08F0380E176E120E186E91EC09F074
:1012300018EF09F03CEF00F0C9CF11F01A0E11645D
:1012400024EF09F026EF09F02AEF09F08B808B924A
:101250002CEF09F08B908B921200C6BA32EF09F096
:1012600034EF09F03BEF09F0800EC76E060EC61290
:10127000000EC56EC68A120000EE01F0110EEE6A75
:10128000E806FDE119901992000EF86E00010BEFCF
:1012900009F0C7A04EEF09F051EF09F0010E52EF2F
:1012A00009F0000E1200C7B058EF09F05BEF09F02B
:1012B000010E5CEF09F0000E1200C7B462EF09F0F6
:1012C00065EF09F0010E66EF09F0000E1200C7AAE3
:1012D0006CEF09F06FEF09F0010E70EF09F0000EEE
:1012E0001200A5EC09F07AEC09F0AEEC08F082EC03
:1012F00009F01200800EC76E060EC612000EC56EF3
:10130000C69A1200300ED36E000E9B6E120017C0EC
:1013100007F018C008F0120017C001F018C002F062
:10132000120017C009F018C00AF0120017C00BF025
:1013300018C00CF0120017C003F018C004F012001F
:1013400017C005F018C006F01200D08EA2869F8646
:101350001200176E17C077FF1200176E17C0C8FF74
:1013600012001050B5EC09F01200126E12C0C9FF45
:101370001200C7EC09F00F6E1200C7EC09F00E6EF8
:1013800012009D861200C68812009E961200C95057
:02139000120049
:020000040030CA
:0E000000FF021F1EFF8B85FF0FC00FE00F4099
:00000001FF
