:0400000070EF00F0AD
:100008004782FACF37F0FBCF38F0D9CF39F0DACFC3
:100018003AF0F3CF3BF0F4CF3CF0F0A816EF00F045
:1000280018EF00F023EF00F0F0A21DEF00F01FEF33
:1000380000F023EF00F0B8EC09F062EF00F0F2AC4A
:1000480028EF00F02AEF00F062EF00F09DA82FEFF4
:1000580000F031EF00F046EF00F09EA836EF00F018
:1000680038EF00F046EF00F002D844EF00F005004A
:10007800FA6E4150FD6E4250FE6EFF6AFA50120051
:1000880062EF00F09DAA4BEF00F04DEF00F062EF39
:1000980000F09EAA52EF00F054EF00F062EF00F07B
:1000A80002D860EF00F00500FA6E3F50FD6E405038
:1000B800FE6EFF6AFA50120062EF00F03CC0F4FFD7
:1000C8003BC0F3FF3AC0DAFF39C0D9FF38C0FBFFA5
:0C00D80037C0FAFF47921100C8EF08F093
:10100000002C1100000000000000000000000000A3
:1010100000000000000000000000000000000000D0
:101020000000000000000000001A13FE1200000083
:1010300000002F50020DF350010FD96EDA6ADE6AFC
:10104000DD6AABA226EF08F028EF08F044EF08F0C5
:101050002F50020DF350010FD96EDA6ADF8425504C
:101060002610D8B436EF08F038EF08F044EF08F057
:1010700002D844EF08F00500FA6E2550FD6E2650A8
:10108000FE6EFF6AFA501200ABA449EF08F04BEF76
:1010900008F067EF08F02F50020DF350010FD96EE2
:1010A000DA6ADF8227502810D8B459EF08F05BEFD6
:1010B00008F067EF08F002D867EF08F00500FA6E55
:1010C0002750FD6E2850FE6EFF6AFA501200AECF18
:1010D00035F02F28070B366E2E503618D8A473EF34
:1010E00008F075EF08F077EF08F080EF08F02F5068
:1010F000110FD96EDA6A35C0DFFF36C02FF02D2A06
:1011000045504610D8B487EF08F089EF08F095EF06
:1011100008F002D895EF08F00500FA6E4550FD6E14
:101120004650FE6EFF6AFA50120012009D9A320E6F
:101130003F6E100E406E9D98320E416E120E426E42
:10114000480EB86E900EAB6E260EAC6EA00EAF6E53
:10115000010EB06E8E0E3D6E130E3E6E8DEC09F0DC
:10116000780E3D6E130E3E6E7FEC09F0000E2C6E75
:10117000000E2B6E000E326E000E316E080E306EB9
:10118000000E2F6E000E2E6E000E2D6E9D8A120028
:101190007E0EF66E130EF76E000EF86E00EE43F044
:1011A00010EE04F00900F5CFEEFFE550E150FAE152
:1011B00000EE01F0330EEE6AE806FDE1479047923B
:1011C000000171EF09F0D09EF292F18C000E3D6E9D
:1011D000000E3E6EAEEC09F0F090F18A000E3D6E0E
:1011E000000E3E6EA9EC09F0F092F188BC0E3D6E47
:1011F000120E3E6EA4EC09F0F0881200AECF34F06F
:10120000610E3418D8A407EF09F009EF09F00DEFCB
:1012100009F08A808A8218EF09F0620E3418D8A487
:1012200014EF09F016EF09F018EF09F08A908A928E
:101230001200080E30601FEF09F021EF09F02FEFC8
:1012400009F03150190FD96EDA6ADF50AD6E3128CE
:10125000070B346E34C031F0302A30EF09F09D981E
:101260001200000E896E000E8A6E000E8B6E000E4C
:101270008C6E000E8D6EFE0E926EFC0E936EBF0E87
:10128000946E9568070E966E000E7D6EF2861200C3
:1012900043504410D8B44FEF09F051EF09F05DEF1F
:1012A00009F002D85DEF09F00500FA6E4350FD6EBB
:1012B0004450FE6EFF6AFA50120012003350D8A458
:1012C00064EF09F066EF09F06CEF09F08A808A821A
:1012D000010E336E70EF09F08A908A92000E336E21
:1012E00012009BEC09F0C3EC09F0C5EC09F0C1EC6D
:1012F00009F0F28EF28C7BEF09F070EF00F03D50B8
:101300003E10D8B486EF09F088EF09F08CEF09F0B1
:101310003DC025F03EC026F012003D503E10D8B42E
:1013200094EF09F096EF09F09AEF09F03DC027F02D
:101330003EC028F01200B3EC09F031EC09F096EC55
:1013400008F0E3EC08F012003DC043F03EC044F06A
:1013500012003DC021F03EC022F012003DC023F03B
:101360003EC024F01200700ED36E000E9B6E120071
:10137000F09248EC09F01200AB98AB881200BC1256
:10138000FC119D8A1200AB881200AB8E1200120075
:020000040030CA
:0E000000FF081F1FFF8985FF0FC00FE00F4094
:00000001FF
